:100000002A110400000000000000000000000000B1
:1000100000000000000000000000000000000000E0
:1000200000000000000000000000000000000000D0
:1000300000000000000000000000000000000000C0
:1000400000000000000000000000000000000000B0
:10225400AF832000F0FF270020A0B700100020006B
:1022640034A0B700400020004420B7004A11020007
:1022740000000000541102000000000084FF070069
:10228400E6FF070096FF0700FEFF3700FFFF370059
:102094008A1F78008B1F78008C1F78001CC0B30047
:1020A4007BC0B3001420EF0077FF07001CC0B3000F
:1020B4001620EF001420EF0073FF07000B582200D6
:1020C4000C0020000AC2B30084FF0700E0F80700F8
:1020D4004F067800CF0578004F0578000000060011
:101E8C008A1F78008B1F78000A0037000B457800FA
:101E9C008C457800A5FD07000B0037000B4578003A
:101EAC008C45780014FE07000700370010C0B30003
:101EBC00050037006054E100F4FF32006154E1008A
:101ECC00F6FF3200F9FF3700CF0578004F05780098
:041EDC0000000600FC
:10153800F0FF2F002AA3B700F0FF2F002CA3B7005D
:10154800F0FF2F006CA3B7003E0037001600AE0076
:10155800C702A9001600AF00C702A8005200370052
:101568001600AE00CC22A9001600AF00CC22A800BD
:101578004D0037001600AE00CC42A9001600AF009F
:10158800CC42A800480037001600AE00DEC2A90011
:101598001600AF00DEC2A800430037001600AE00F8
:1015A800DEE2A9001600AF00DEE2A8003E00370028
:1015B8001600AE00DF02A9001600AF00DF02A80087
:1015C800390037001600AE00D202A9001600AF009D
:1015D800D202A800340037001600AE00C182A9006C
:1015E8001600AF00C182A8002F0037001600AE0019
:1015F800DE82A9001600AF00DE82A8002A003700AC
:101608001600AE00DEA2A9001600AF00DEA2A800F8
:10161800250037001600AE00C042A9001600AF0032
:10162800C042A800200037001600AE00C062A90022
:101638001600AF00C062A8001B00370010C0B3003E
:101648001A0037006054E100C0FF32006154E10025
:10165800C3FF32006254E100C6FF32006354E10068
:10166800C9FF32006454E100CCFF32006554E10048
:10167800CFFF32006654E100D2FF32006754E10028
:10168800D5FF32006854E100D8FF32006954E10008
:10169800DBFF32006A54E100DEFF32006B54E100E8
:1016A800E1FF3200E5FF370000C0B300000006008C
:10170400F0FF2F002AA3B700F0FF2F002CA3B7008F
:10171400F0FF2F006CA3B7003E0037001600AE00A8
:10172400C722A9001600AF00C722A8005200370044
:101734001600AE00CC62A9001600AF00CC62A8006F
:101744004D0037001600AE00CC82A9001600AF0091
:10175400CC82A800480037001600AE00DEC2A90003
:101764001600AF00DEC2A800430037001600AE002A
:10177400DEE2A9001600AF00DEE2A8003E0037005A
:101784001600AE00DF02A9001600AF00DF02A800B9
:10179400390037001600AE00D222A9001600AF00AF
:1017A400D222A800340037001600AE00C1A2A9005E
:1017B4001600AF00C1A2A8002F0037001600AE002B
:1017C400DF82A9001600AF00DF82A8002A003700DC
:1017D4001600AE00DFA2A9001600AF00DFA2A80029
:1017E400250037001600AE00C042A9001600AF0065
:1017F400C042A800200037001600AE00C062A90055
:101804001600AF00C062A8001B00370010C0B30070
:101814001A0037006054E100C0FF32006154E10057
:10182400C3FF32006254E100C6FF32006354E1009A
:10183400C9FF32006454E100CCFF32006554E1007A
:10184400CFFF32006654E100D2FF32006754E1005A
:10185400D5FF32006854E100D8FF32006954E1003A
:10186400DBFF32006A54E100DEFF32006B54E1001A
:10187400E1FF3200E5FF370000C0B30000000600BE
:101EE0008A1F78008B1F78008C1F78001200370043
:101EF0000B0578008C05780071FE0700190037008B
:101F00000B0578008C057800EBFD07001500370005
:101F10000B0578008C057800F5FD070011003700EF
:101F20000B0578008C057800ECFD07000D003700EC
:101F300010C0B3000B0037006054E100ECFF32002A
:101F40006154E100EEFF320000C2B3000054E10032
:101F5000EFFF320000C3B3000054E100F0FF320095
:101F6000F3FF37004F067800CF0578004F05780063
:041F70000000060067
:1018C000FEFC070060402000A04188000020EF00DF
:0418D000000006000E
:100CBC000800FA006040200090418800F0FF2F00EF
:100CCC0080418800F0FF2F0070418800F0FF2F005A
:100CDC00604188003022EF000000280032A2B700EB
:100CEC003062A900E1FD07000001BE00803E20003B
:100CFC0001002000CBFD07000001BE00D9FD07005C
:100D0C004100DE0064004000800078006000470075
:100D1C000A88BE008100E900030035001018D000DD
:100D2C001090D200FBFF3700829FBE008A9FBE004E
:100D3C000200BE000E0190009E0190000002EB002C
:100D4C00F6FD07004F05BE004F01BE0020079800BE
:100D5C00310798008A9FBE000200BE000E01900071
:100D6C009E0190000002EB00C3FD07004F05BE0082
:100D7C008001780001027800600047005001D1002A
:100D8C00C080D300640047003008E1002090E100EF
:100D9C000700310061804100E0004A0080027800C9
:100DAC000103780005017800860178000200370005
:100DBC0003017800840178000280710033003A004E
:100DCC00AAFD07000001BE00803E200001002000AB
:100DDC0094FD07000001BE00A2FD07004100DE00EB
:100DEC0000A0EC0080007800600047000A88BE007C
:100DFC008100E900030035001018D0001090D200DB
:100E0C00FBFF3700829FBE000200BE000E01900067
:100E1C009E0190000002EB00C0FD07004F01BE00D8
:100E2C0020079800310798000200BE000E019000C8
:100E3C009E0190000002EB008FFD070080017800FE
:100E4C0001027800600047005001D100C080D3003F
:100E5C00640047003008E1002090E10007003100F9
:100E6C0061804100E0004A008002780001037800B4
:100E7C000501780086017800020037000301780034
:100E8C00840178003062A800000037006100510036
:100E9C00E0805900C01188003222A90031E2A8007C
:100EAC003342A80068FD070067FD07000080FA00C8
:040EBC00000006002C
:0C04780000F4210001002000000006003C
:0804700020002000000006003E
:1004540038002000578D20000E20ED00FEFF3A00EA
:0C0464001020ED00FCFF3A000000060034
:100430000000FA00020AB800500088000200B8006C
:1004400081004200032AB800810042000080FA00C7
:0404500000000600A2
:100528000000FA0002000700E802040000000000D2
:100538000800E20002003A00100007000000060070
:10054800811F78000200E20002003D0060001000F8
:10055800E08018000600E20002003D006001110082
:10056800E0811900050007004F00E00002003B0091
:1005780060001000E080180000000600020007007C
:100588000480BE00000006006022B80006022000B9
:100598000000D0008180D2000482D2008582D2007F
:1005A8000000A8000202520083825A0003003B00A8
:1005B8000202420083824A000000A1000603E9000B
:1005C800F3FF3A00000006000080FA000000060071
:100484000000FA00020007009002040000000000CF
:100494000800E20002003A00100007000000060015
:1004A400839F68000200E20002003D00600010002B
:1004B400E08018000600E20002003D006001110027
:1004C400E0811900050007004F00E00002003B0036
:1004D40060001000E0801800000006006022B800F0
:1004E400060220000000D0008180D2000482D200E5
:1004F4008582D2000000A8000202520083825A00C2
:1005040003003B000202420083824A000000A10073
:100514000603E900F3FF3A00000006000080FA0039
:0405240000000600CD
:0816B80060C0B3000000060051
:1016F00072FD070060402000A04188000020EF003C
:0417000000000600DF
:1016DC00CAFB0700E05C2000A04188000020EF005E
:0416EC0000000600F4
:100608000800FA00E05C200090418800F0FF2F000D
:1006180080418800F0FF2F0070418800F0FF2F0014
:10062800604188002022EF000000280022A2B700C5
:100638002062A9008EFF07000001BE00803E200056
:100648000100200078FF07000001BE0086FF0700B8
:100658004100DE0064004000800078006000470030
:100668000A88BE008100E900030035001018D00098
:100678001090D200FBFF3700829FBE008A9FBE0009
:100688000200BE000E0190009E0190000002EB00E7
:10069800A3FF07004F05BE004F01BE0020079800CA
:1006A800310798008A9FBE000200BE000E0190002C
:1006B8009E0190000002EB0070FF07004F05BE008E
:1006C8008001780001027800600047005001D100E5
:1006D800C080D300640047003008E1002090E100AA
:1006E8000700310061804100E0004A008002780084
:1006F80001037800050178008601780002003700C0
:1007080003017800840178000280710033003A0008
:1007180057FF07000001BE00803E200001002000B6
:1007280041FF07000001BE004FFF07004100DE0047
:1007380000A0EC0080007800600047000A88BE0036
:100748008100E900030035001018D0001090D20095
:10075800FBFF3700829FBE000200BE000E01900022
:100768009E0190000002EB006DFF07004F01BE00E4
:1007780020079800310798000200BE000E01900083
:100788009E0190000002EB003CFF0700800178000A
:1007980001027800600047005001D100C080D300FA
:1007A800640047003008E1002090E10007003100B4
:1007B80061804100E0004A0080027800010378006F
:1007C80005017800860178000200370003017800EF
:1007D800840178002062A800000037006100510001
:1007E800E0805900401188002222A90021E2A800D7
:1007F8002342A80015FF070014FF07000080FA0035
:0408080000000600E6
:102220008A1F78008B1F78000A00280015FF07001E
:102230000A002C00FB47240007FF070009FF0700E6
:1022400093FF070083F80700CF0578004F0578005B
:042250000000060084
:081E84000EFE0700000006003D
:1016C000F800450011007800C04188006E8040009D
:0C16D00010007800B04188000000060007
:0C1E5800EA408800FB4088000000060003
:101E64008A1F78008B1F78001620EF001A002000CC
:101E740097FE0700CF0578004F05780000000600A4
:1018D4000000FA002043200050418800000E200040
:1018E40020A3B700CA50DD00003220001088700029
:1018F40001002E002032200001886500F0F3210051
:1019040024A3B7003223EF003023EF002E23EF008F
:0C19140021E3A8000080FA00000006009B
:042090000000060046
:1020E4003800FA008A1F78008B1F78008C1F780054
:1020F4000420EF000620EF000820EF007424E10024
:102104000A003100829FBE00D8FF07004F01BE00C5
:1021140080024100018349006140420005017800CA
:102124008601780000427800F4FF37000200BE0008
:1021340042012000030020000002EB00D0F8070059
:102144000007980000057800ADFF0700100798000D
:10215400210798000420EF000620EF0063FB07002E
:102164000000E0000060EF0001003D000060EC00B2
:102174000040E200040032000020EF000220EF00E3
:102184001007980021079800660047008005780032
:102194000E05900076FF07001BC0B300FA802000F4
:1021A400DEFD0700660047002BC0B3000005780081
:1021B400DAFD070066004700000678001E0590005F
:1021C400AE0590000CFE07001BC0B3003A8020004F
:1021D400D2FD0700660047002BC0B300000578005D
:1021E400CEFD07002BC0B3000A802000CBFD070002
:1021F400B8002000D7C222000E20ED00FEFF3A00F6
:102204001020ED00FCFF3A004F067800CF0578005F
:0C2214004F0578000080FA000000060072
:102070008A1F78008A00200091FB07000001780089
:102080008001EB000200BE004F0578000000060052
:100EC0000000FA0058FE070066FE07000080FA00E6
:040ED0000000060018
:100828000000FA002043200050418800000E2000FC
:1008380020A3B7002143A9002223EF00F0F32100F1
:1008480024A3B7003223EF003023EF002E23EF005C
:0C08580021E3A8000080FA000000060068
:100864000000FA006F50E10007003600F000550068
:10087400100020000100DD008080EA00A03220008A
:100884001088600005003700100020000A00DD0019
:100894008080EA00C0322000108860004A19880075
:1008A4002023A8002003AF0001003700FDFF37001C
:1008B4002003A9000083BF000080FA0000000600A6
:102004000400FA008A1F7800E2408000F340800058
:1020140000002400E154240050FC07004F05780020
:1020240000079800110798000A0078008000EB0070
:10203400E5FC07000E0190009E019000BAFB07002A
:1020440002002800033B2400ADFB0700020020002F
:102054004328240041FC070002002000A347240079
:0C206400B1FB07000080FA00000006003D
:101160000000FA0002000700E2090400000000008D
:10117000889FBE008A9FBE008C1F78003E0007003B
:101180004500330003866C006450E1002E003200FD
:101190006420E100330032006150E1002F00320092
:1011A0006120E1003100320085855500EB07B00079
:1011B000090020000804200005003700080444004E
:1011C00089844C000A0031000603430087834B00EA
:1011D0000001530081815B00F8FF33000283BE00F1
:1011E0001000A8000804440089844C00F6FF390070
:1011F000C639DD00830173000100320013002000B6
:101200008904D1000884D3000998A30005003200A6
:101210000800A7000600A8008904D1000884D300B4
:101220008B05E8008904D1000884D3000001EB009D
:101230000281D2002800070001F0A1000CF0A700F5
:1012400003E0A8001D0037006420E1001F00320009
:101250000881BE000280BE00F7FF37006120E10078
:101260001A0032006000B800F3FF370000002000D1
:1012700001F82700F0FF37000084BE003C000700A3
:101280000083BE000485BE000280BE003800070057
:10129000844F7500000006000280BE006450E1002B
:1012A000050036006420E100020036000968A30052
:1012B00001003A000880BE0002C0A8004F06780076
:1012C0004F05BE004F04BE0000000600F0FF2F00D7
:1012D000F1FF2700F9FF37008100200061805500F1
:1012E0000B003D000B00200061FE2F000100E1001B
:1012F0001D00340082817100610164008904D10005
:101300000884D3000000E800FAFF3A0071002000D2
:1013100061006400030070000200600009003200F8
:1013200061044400E0844C000988A50005003200F7
:101330008B05E8006808E10002003A008904D1004A
:101340000884D300F20F20000258E10005003D00A0
:10135000C75DDD00F907B2008980750008008800CC
:10136000000006000BF827001B00880000000500A5
:10137000C70ADE00F107B200F50FB2000800320024
:10138000E1CF42000200320002E0A8002400050084
:10139000810F7000010032000408050044000500C0
:1013A000810F700002003A00140005008502E90078
:1013B0000000400081C04800FCFF3B0002E0A800A4
:0C13C000240005000080FA000000060078
:1013CC000000FA0002000700980A04000000000068
:1013DC000400E20006003A000005EB000200E20007
:1013EC000F003E000000E200270032000C00370026
:1013FC00A10088000200E2000400350008003C0057
:10140C000000E200200032000500370060001000F0
:10141C00E080180002003B0001F02C001A0037009D
:10142C000084BE006011B8006B0920000982CF0057
:10143C00020039000882CF000441B000694252001A
:10144C000E00320008003B008281710061016400D3
:10145C008904D1000884D3008B05E8000442E8001D
:10146C00F9FF3A00050037000804440089844C0059
:10147C008B05E9000442E900FBFF3A00030007007A
:10148C000AF0A70003E0A80000000600810020007D
:10149C00618055000B003D000B00200061FE2F0009
:1014AC000100E1001D0034008281710061016400C3
:1014BC008904D1000884D3000000E800FAFF3A0048
:1014CC0071002000610064000300700002006000E5
:1014DC000900320061044400E0844C000988A50036
:1014EC00050032008B05E8006808E10002003A00B4
:1014FC008904D1000884D300F20F20000258E100C7
:10150C0005003D00C75DDD00F907B200898075005C
:10151C0008008800000006000BF827001B0088005C
:0C152C00000005000080FA00000006002E
:100F2C000000FA0002000700AC08040000000000FA
:100F3C00889FBE008A9FBE008C1F7800300007007F
:100F4C003700330003866C006450E100240032004B
:100F5C006420E100270032006150E10022003200E1
:100F6C006120E100210032008B854200EB07B100CB
:100F7C000134B800003AB8000804420089844A00E1
:100F8C00013AB8000030B8008880400009014A00DE
:100F9C000400330000004000818048000201490039
:100FAC008B05E900C909DD008301700001003200E6
:100FBC0013002000C814DE004814DD004709DE00D1
:100FCC001200B200C808DE0008847000240007007C
:100FDC0001F0A1000CF0A70003E0A80019003700F5
:100FEC006120E1001B0032000881BE000280BE00BF
:100FFC00F7FF37006150E100FCFF3A0015003700A5
:10100C000084BE003C0007000083BE000485BE00C7
:10101C000280BE0038000700844F750000000600F7
:10102C000280BE006450E100050036006420E1003F
:10103C00020036000968A30001003A000880BE00D7
:10104C0002C0A8004F0678004F05BE004F04BE003A
:10105C0000000600F0FF2F00F1FF2700F9FF37001A
:10106C0081002000618055000B003D000B0020002A
:10107C0061FE2F000100E1001D003400828171002F
:10108C00610164008904D1000884D3000000E800E9
:10109C00FAFF3A0071002000610064000300700048
:1010AC00020060000900320061044400E0844C003E
:1010BC000988A500050032008B05E8006808E100EE
:1010CC0002003A008904D1000884D300F20F2000FA
:1010DC000258E10005003D00C75DDD00F907B200D4
:1010EC008980750008008800000006000BF82700B6
:1010FC001B00880000000500C70ADE00F107B200E3
:10110C00F50FB20008003200E1CF420002003200BD
:10111C0002E0A80024000500810F700001003200DD
:10112C000408050044000500810F700002003A001D
:10113C00140005008502E9000000400081C0480051
:10114C00FCFF3B0002E0A800240005000080FA0030
:04115C000000060089
:100F04000000FA0007E0AA006DFE07000080FA0066
:040F140000000600D3
:1008C4000000FA0002000700CA050400000000004E
:1008D400889FBE008A9FBE008C1F780059000700C5
:1008E400600033006450E1004F0032006420E100F6
:1008F4005200320003826C0007003B000905D0005F
:100904000306D000820F54000C065D00020039007B
:100914000200320039008800C30088008582550037
:1009240004003D000003FD008103FD008502EA0090
:100934008B854200840F720002003B0060001000AF
:10094400E08018006011B8000005EB007A28E1008F
:100954000A00390006008800C75DDD00F707B20011
:10096400878075002D003700828171002A0088007D
:10097400610560008180D1000080D3008502E90018
:10098400F9FF3B00060440008784480002003B0056
:1009940060041400E0841C000988A30007003200EE
:1009A4008A81710082817100610164008904D1002F
:1009B4000884D3008B05E800170037000978A300EA
:1009C40013003A001600E200130034008B05E9001E
:1009D4000804440089844C000A4474000978A30084
:1009E4000D003A001600E200070034008B05E90010
:1009F4000804440089844C0001003A000B002000E4
:100A04000978A300F7FF32000001EB000200370071
:100A1400828171002A008800220007000CF0A700E0
:100A240003E0A800180037006420E10002003A0047
:100A3400838F6C00180033000881BE000280BE0062
:100A4400110037000084BE003C0007000083BE0094
:100A54000485BE000280BE0038000700844F750084
:100A6400000006000280BE006450E100050036006C
:100A74006420E100020036000968A30001003A0086
:100A84000880BE0002C0A8004F0678004F05BE00D3
:100A94004F04BE0000000600F0FF2F00F1FF270006
:100AA400F9FF370081002000618055000B003D00F4
:100AB4000B00200061FE2F000100E1001D00340046
:100AC40082817100610164008904D1000884D3002B
:100AD4000000E800FAFF3A007100200061006400A1
:100AE4000300700002006000090032006104440049
:100AF400E0844C000988A500050032008B05E8005D
:100B04006808E10002003A008904D1000884D30097
:100B1400F20F20000258E10005003D00C75DDD0032
:100B2400F907B200898075000800880000000600FB
:100B34000BF827001B00880000000500C70ADE0030
:100B4400F107B200F50FB20008003200E1CF420015
:100B54000200320002E0A80024000500810F7000AA
:100B6400010032000408050044000500810F7000F4
:100B740002003A00140005008502E900000040006C
:100B840081C04800FCFF3B0002E0A80024000500EF
:080B94000080FA0000000600D9
:101F74000200FA000420EF006514E10006003100BD
:101F84000280FB008080450000C2B30080487800D6
:101F94000460EC00F8FF37000280FB0080804500FD
:101FA4000020EF0080487800E14151000380FB00ED
:101FB4000080450000079800A200200011000900DD
:101FC4000285D80000032000808040000E009000AD
:101FD40001487800A2002000110009000285D80001
:101FE400000578006000E10001003A0002003700BB
:101FF4000660ED00EDFF37000080FA0000000600E7
:101920000200FA008A1F78008A007800D0002000A8
:1019300000479800A00020001047980025003700BD
:101940000105780063FD07002900370001007800D9
:101950001004E00008003200801F78008A9FBE005B
:10196000000578005BFD07004F05BE004F007800C2
:101970000020EC00F6FF37001D0037000100780062
:101980001004E00008003200801F78008A9FBE002B
:10199000000578004FFD07004F05BE004F0078009E
:1019A0000020EC00F6FF3700600047008A9FBE0071
:1019B0000005780047FD070061004700000578003A
:1019C00044FD07004F05BE000900370060C0B300AA
:1019D00007003700605CE100D9FF3200615CE10084
:1019E000DAFF3200625CE100E4FF3200F7FF37000B
:0C19F0004F0578000080FA00000006009F
:100ED4008A1F78001A85FB00A041800000000100F1
:0C0EE4000020EF004F0578000000060021
:100BC8000000FA0082FE07000080FA00000006001C
:1005D8000000FA0040C2A9004022AE000100370026
:1005E800FDFF37004A1288004002AF0001003700C3
:1005F800FDFF37004882BF000080FA0000000600B7
:100BB8000000FA0010FE07000080FA00000006009E
:100400000000FA0060C2A9006022AE0001003700BF
:10041000FDFF37004A1388006002AF00010037007B
:10042000FDFF37006882BF000080FA000000060070
:100B9C000000FA002302AF0001003700FDFF370010
:0C0BAC002A1188000080FA0000000600FA
:10080C000000FA003302AF0001003700FDFF370093
:0C081C00AA1188000080FA00000006000D
:1019FC000600FA008A1F78008B1F78000000200078
:101A0C004047980000002000504798000A079800B3
:101A1C001B0798000E0190009E019000F0FF2F0014
:101A2C00F1FF2F000010E1000198E10005003A00E1
:101A3C000B8220000C0578008FFF070030C0B3002C
:101A4C00FE00370016C0B300600047006300400082
:101A5C001040780000E0AE000D0037006000470039
:101A6C00630140009280FB000008200000806800A9
:101A7C0000497800E1404300D0C2B300004E78002A
:101A8C006100460000067800014278000100370032
:101A9C00064278000E0090009E0090006000E1006D
:101AAC006088E10005003A004B8220000C057800AC
:101ABC0071FF07000020EF00E00037000E019000DE
:101ACC009E0190000000200001F827000010E100AA
:101ADC000198E10005003A006B8220000C057800AB
:101AEC0065FF070004407800D40037008C1F780095
:101AFC008A9FBE000200200003F823000E00900015
:101B0C009E009000F7FC07000000E0000060EF0072
:101B1C0001003D000060EC004F05BE004F06780050
:101B2C000040E2000F0032008C1F78008A9FBE003C
:101B3C000E0090009E009000020020000312240072
:101B4C00F7FC07004F05BE004F0678000007980011
:101B5C0011079800DE4090006500470061C85000F6
:101B6C00E2FF37008C1F78008A9FBE000200200025
:101B7C00031224000E0090009E009000E3FC07006E
:101B8C000000E0000060EF00010035000060EC0098
:101B9C004F05BE004F0678000040E2000F003200F7
:101BAC008C1F78008A9FBE000E0090009E00900053
:101BBC00D2CC2C00C3DC2300D9FC07004F05BE009F
:101BCC004F0678000007980011079800DE4090003F
:101BDC006500470061C84000E2FF37006001470024
:101BEC003200D000A280D2000007980011079800A4
:101BFC00600047006300400090407800F0C7B300DD
:101C0C0000C1500060004700E300400010C0B3006A
:101C1C00804878008281FB00600147001200BE0002
:101C2C008301E900030035000000D0008180D20060
:101C3C00FBFF370000079800110798006000470071
:101C4C0063004000010320001080FB000080400076
:101C5C00004E780061004600000678005E4090005F
:101C6C006104E100040035005E4090006604E10070
:101C7C0001003C0006003700E0C2B300004E7800C3
:101C8C00610046000006780010C0B3004047980081
:101C9C0065C0B300602CE1002C00320060004700EE
:101CAC00E30040000020EF0080487800600047000F
:101CBC00B001D0002082D2008301D0000482D20077
:101CCC006001470032804100A2004A0000079800E2
:101CDC0011079800600147003200D000A280D200AA
:101CEC00000798001107980060004700630040004F
:101CFC00010320001080FB0000804000004E7800A3
:101D0C0061004600000678004E4090006004E1003F
:101D1C000B003A005E4090000060ED0050479800C8
:101D2C006004E10006003A00E0C2B300004E780007
:101D3C00610046000006780010C0B30040479800D0
:101D4C0061C0520080427800D2FF3700F0FF2F00B4
:101D5C00000046009040780000C3B300000CE10086
:101D6C0003003A006100560000067800F7FF3700C8
:101D7C00F0FF2F000000460090407800E0C2B30056
:101D8C00000CE10002003A006100560000067800E9
:101D9C005E4090006004E1002500320050C6B300A4
:101DAC00004E780061004600000678005E4090000E
:101DBC006004E10007003D00D0C2B300004E780083
:101DCC006100460000067800DE4090006500470088
:101DDC0060C81000DE4190005E4090006904E10094
:101DEC000A0036000380FB00A2002000110009004D
:101DFC000200D800800078000003200001004000A1
:101E0C00004E780061004600000678000380FB005D
:101E1C00A2002000110009000200D80000032000DD
:101E2C0001004000004E780061004600000678007A
:101E3C000020EF00004E78000020EF00CF05780066
:0C1E4C004F0578000080FA00000006003E
:101884000000FA000A00780000017800E10140003D
:101894008B0078006180450080057800114978004C
:1018A4001204E0000200320003007800F6FF370063
:0C18B4000A0078000080FA000000060026
:100EF0000000FA001400200037FF07000080FA000D
:040F000000000600E7
:100BD8000000FA00020007005A06040000000000A6
:100BE800841F7800140007004F00780011003300BC
:100BF800F0FF2F00838F6C0006003B0004056500A2
:100C08000A00A7000800370009F0A600100020001D
:100C180008003700820F5400838F5C0003003900FE
:100C28001000200001003E000000200009F0A7008D
:100C38000000EA00000006000084BE00060007006D
:100C48000083BE000485BE000280BE0002000700CB
:100C5800844F750000000600C70ADE00F107B200E5
:100C6800F50FB20008003200E1CF42000200320066
:100C780002E0A80024000500810F70000100320086
:100C88000408050044000500810F700002003A00C6
:100C9800140005008502E9000000400081C04800FA
:100CA800FCFF3B0002E0A800240005000080FA00D9
:040CB8000000060032
:100F18000000FA00F4FF2F002DFF07000080FA0000
:040F280000000600BF
:102294000A8020000B0020001C0009000B1D7800A0
:0422A4000000060030
:1022A800018020000003280014000900B0187800FD
:0422B800000006001C
:020000040001F9
:10000000FFFF0000FFFF0000FFFF0000FFFF0000F8
:10001000FFFF0000FFFF0000FFFF0000FFFF0000E8
:10002000FFFF0000FFFF0000FFFF0000FFFF0000D8
:10003000FFFF0000FFFF0000FFFF0000FFFF0000C8
:10004000FFFF0000FFFF0000FFFF0000FFFF0000B8
:10005000FFFF0000FFFF0000FFFF0000FFFF0000A8
:100060002020000000200000437500007272000094
:10007000656E0000742000003A200000002000009F
:100080004144000043200000766100006C750000D0
:08009000653A000020000000A9
:0800980000C000007F440000DD
:0800A0004E6100004E0000005B
:0400A8003000000024
:0800AC00494E0000460000006F
:0200000401F009
:20000000CF000000CF00000007000000A2000000850000007F000000E7000000C1000000ED
:00000001FF
