:1000000021EF11F00000000000EF00F00000000000
:0A0010000000000000000000F3D71C
:10001C000B820BAE18EF00F00368026801680068F1
:08002C000A360232FF0E120039
:0E003400026A016A006A086A036A000E12007E
:080042000AAE029E000E12003E
:10004A000B840BAE30EF00F0010E036E026A016AF8
:0A005A00006A0A360232FF0E12009F
:0E0064000001ABB102D08B9601D08B8612004A
:0E0072000001ABB102D08B9801D08B88120038
:0E0080000001ABB102D08B9C01D08B8C120022
:0E008E000001ABB102D08A9001D08A8012002E
:0E009C000001ABB102D08B9E01D08B8E120002
:0E00AA000001ABB102D08B9601D08B86120004
:0E00B8000001ABB102D08B9801D08B881200F2
:0E00C6000001ABB102D08D9201D08D821200EC
:0E00D4000001ABB102D0899201D089821200E6
:0E00E2000001ABB102D0899801D089881200CC
:0E00F0000001ABB102D0899001D089801200CE
:0E00FE000001ABB102D08B9001D08B801200BC
:10010C000F0121B302D00000FBD7ABC01CFF1200C3
:10011C000CB0D0EF00F00CA276EF01F00E6A000EDE
:10012C000264E7EF00F0F00E0214D8A4B2EF00F076
:10013C00023A01380F0B02260138F00B016E003821
:10014C000F0B01260038F00B006E08380F0B002641
:10015C000838F00B086E0E84D89002BECBEF00F07E
:10016C0008360036013602360E2A02BECBEF00F0FE
:10017C0008360036013602360E2A02BECBEF00F0EE
:10018C0008360036013602360E2A0E5003646CEF28
:10019C0001F0035E0BBC08AE71EF01F0D880800E4D
:1001AC0008640030000E002201220222D8A071EF58
:1001BC0001F0023201320032034A76EF01F071EFA6
:1001CC0001F001C002F000C001F008C000F0086AA4
:1001DC00000E0E8602641EEF01F0F00E0214D8A47D
:1001EC0006EF01F0023A01380F0B02260138F00B32
:1001FC00016E00380F0B01260038F00B006E0E84D8
:10020C00D89002BECBEF00F00036013602360E2A33
:10021C0002BECBEF00F00036013602360E2A02BECB
:10022C00CBEF00F00036013602360E2ACBEF00F091
:10023C0001C002F000C001F0006A000E0E960E889C
:10024C0002644BEF01F0F00E0214D8A436EF01F06B
:10025C00023A01380F0B02260138F00B016E0E84A6
:10026C00D89002BECBEF00F0013602360E2A02BE49
:10027C00CBEF00F0013602360E2A02BECBEF00F0B7
:10028C00013602360E2ACBEF00F001C002F0016AF3
:10029C00000E0E8602647BEF01F0F00E0214D8A45F
:1002AC005AEF01F0023A0E84D89002BECBEF00F068
:1002BC0002360E2A02BECBEF00F002360E2A02BE28
:1002CC00CBEF00F002360E2ACBEF00F0010E0C6ED5
:1002DC00B6DE7EEF01F0020E0C6EADDE7EEF01F0AD
:1002EC00040E0C6E95DE7EEF01F0080E0C6E9CDE9B
:0202FC001200EE
:0E02FE00ACB202D00000FCD7ABC0ADFF1200C6
:0E030C000001ABB102D08B9A01D08B8A120097
:0E031A000001ABB102D08B9201D08B82120099
:0E0328000001ABB102D08B9801D08B8812007F
:0E0336000001ABB102D08D9001D08D8012007D
:0E0344000001ABB102D08B9601D08B86120067
:0E0352000001ABB102D08B9A01D08B8A120051
:0E0360000001ABB102D08F9001D08F8012004F
:0E036E000001ABB102D08B9601D08B8612003D
:0E037C000001ABB102D08B9801D08B8812002B
:0E038A000001ABB102D08A9401D08A84120027
:0E0398000001ABB102D08B9601D08B86120013
:0E03A6000001ABB102D08B9801D08B88120001
:0E03B4000001ABB102D08F9401D08F841200F3
:0E03C2000001ABB102D08F9201D08F821200E9
:0E03D0000001ABB102D08D9401D08D841200DB
:0E03DE000001ABB102D08A9201D08A821200D7
:0E03EC000001ABB102D08B9E01D08B8E1200AF
:0E03FA000001ABB102D08B9A01D08B8A1200A9
:0E0408000001ABB102D08B9401D08B841200A6
:0E0416000001ABB102D08B9C01D08B8C120088
:0E0424000001ABB102D0899401D0898412008E
:0E0432000001ABB102D08D9601D08D86120074
:0E0440000001ABB102D08B9601D08B8612006A
:0E044E000001ABB102D08B9801D08B88120058
:10045C000C6A0E6A0250D8A447EF02F001C002F0F9
:10046C0000C001F0006A0E860250D8A447EF02F0DB
:10047C0001C002F0016A0E960E880250D8B459EFF2
:10048C0002F00E50035ED8A4D8A05EEF02F0D89014
:10049C0002BE63EF02F0003601360236032E4EEF39
:1004AC0002F05EEF02F0010E0C6EBEDD66EF02F0A4
:1004BC00020E0C6EC4DD66EF02F0040E0C6EBBDD9A
:0204CC0012001C
:1004CE00025006180E6E086A096A0B6A035007641A
:1004DE005AEF03F006500A6E068E028E03500B6E14
:1004EE000750036E000E0B64AAEF02F00B50075E6E
:1004FE00D8B44BEF03F0070E076419EF03F0075E55
:10050E0000C008F001C000F002C001F0026A074E00
:10051E004BEF03F00764EEEF02F0075E00C008F049
:10052E0001C000F0016A074E4BEF03F00764CCEFF9
:10053E0002F0075E00C008F0006A074E4BEF03F0B2
:10054E000764B3EF02F00AC002F005C001F004C068
:10055E0000F0086A75EF04F0030E0764BEEF02F0B8
:10056E00075E08380F0B086E074E4BEF03F0D8905E
:10057E000832074E4BEF03F0D8900832074E4BEF80
:10058E0003F0D89008324BEF03F0030E0764DDEF53
:10059E0002F0075E08380F0B086E0038F00B0826C5
:1005AE0000380F0B006E074E4BEF03F0D890003261
:1005BE000832074E4BEF03F0D89000320832074E48
:1005CE004BEF03F0D890003208324BEF03F0030EDE
:1005DE00076405EF03F0075E08380F0B086E00384E
:1005EE00F00B082600380F0B006E0138F00B0026BA
:1005FE0001380F0B016E074E4BEF03F0D89001320E
:10060E0000320832074E4BEF03F0D8900132003221
:10061E000832074E4BEF03F0D89001320032083209
:10062E004BEF03F0030E076436EF03F0075E083856
:10063E000F0B086E0038F00B082600380F0B006EFB
:10064E000138F00B002601380F0B016E0238F00B4B
:10065E00012602380F0B026E074E4BEF03F0D890B7
:10066E000232013200320832074E4BEF03F0D890BF
:10067E000232013200320832074E4BEF03F0D890AF
:10068E000232013200320832096A000E0EAE3FEF1E
:10069E0004F0081E001E011E021E082A002201225E
:1006AE0002223FEF04F00750D8A460EF03F075EF7D
:1006BE0004F0096A02C00AF0028E068E0750035C2F
:1006CE00076ED8B432EF04F0070E076400EF04F0A3
:1006DE00075E0450096E0550046E0650056E066ADC
:1006EE00074E32EF04F0070E0764D5EF03F0075EF6
:1006FE000450096E0550046E056A074E32EF04F081
:10070E00070E0764B3EF03F0075E0450096E046A28
:10071E00074E32EF04F0070E07649AEF03F00AC09B
:10072E0002F075EF04F0030E0764A5EF03F0075E09
:10073E0009380F0B096E074E32EF04F0D8900932CC
:10074E00074E32EF04F0D8900932074E32EF04F024
:10075E00D890093232EF04F0030E0764C4EF03F0B1
:10076E00075E09380F0B096E0438F00B09260438A2
:10077E000F0B046E074E32EF04F0D890043209329C
:10078E00074E32EF04F0D89004320932074E32EFA2
:10079E0004F0D8900432093232EF04F0030E0764ED
:1007AE00ECEF03F0075E09380F0B096E0438F00BFF
:1007BE00092604380F0B046E0538F00B0426053895
:1007CE000F0B056E074E32EF04F0D890053204324F
:1007DE000932074E32EF04F0D89005320432093256
:1007EE00074E32EF04F0D89005320432093232EF60
:1007FE0004F0030E07641DEF04F0075E09380F0BBB
:10080E00096E0438F00B092604380F0B046E0538F8
:10081E00F00B042605380F0B056E0638F00B052677
:10082E0006380F0B066E074E32EF04F0D8900632E4
:10083E00053204320932074E32EF04F0D8900632F8
:10084E00053204320932074E32EF04F0D8900632E8
:10085E00053204320932086A000E0EAE3FEF04F084
:10086E00091E041E051E061E092A04220522062242
:10087E00095008260450002205500122065002227B
:10088E000EBE56EF04F0D8A065EF04F0023201322E
:10089E0000320832033E65EF04F06FEF04F0D8B07B
:1008AE006AEF04F0000E081E001E011E021E082A2A
:1008BE000022012202220A7E6AEF04F0010E0C6E63
:1008CE0026DC77EF04F0020E0C6E21DC77EF04F0DD
:1008DE00040E0C6E0EEC00F077EF04F0000E0C6EB2
:0208EE001200F6
:0A08F000750E0D6E0D2EFED71200DE
:0808FA000B6A0B86FF0E1200D1
:10090200F250026EF29E0500FF6A0150FE6E005028
:08091200FD6E02BEF28E120020
:10091A000C0E546E010E556EAB0E566E000E576ECF
:10092A00FF0E506EFF0E516E000E526E000E536E89
:10093A00FF0E4C6EFF0E4D6E000E4E6E000E4F6E89
:10094A00FF0E586EFF0E596E000E5A6E000E5B6E49
:10095A000F01218B900E226F98849892A4AA03D03B
:08096A001DCF00F0FBD71200C5
:10097200FE0E546E020E556EAB0E566E000E576E84
:10098200FF0E506EFF0E516E000E526E000E536E31
:10099200FF0E4C6EFF0E4D6E000E4E6E000E4F6E31
:1009A200FF0E586EFF0E596E000E5A6E000E5B6EF1
:1009B200AC8A900EAB6E948E949C9EAA03D0AECF5E
:0609C20000F0FBD712005B
:1009C800300E0001A725006E000EA821016E000E52
:1009D800A921026E00C0F6FF01C0F7FF02C0F8FFB0
:1009E8000900F5CF40F00900F5CF41F00900F5CF37
:1009F80042F00900F5CF43F01C0E0024F66E000EFD
:100A08000120F76E000E0220F86E0900F5CF44F0C1
:100A18000900F5CF45F00900F5CF46F00900F5CFFC
:040A280047F0120081
:100A2C0038D00F0120870D0E1F6F040E1E6F21850D
:100A3C006EDF7ED00F012087060E1F6F820E1E6F99
:100A4C00218565DF75D00F012087030E1F6F400EC7
:100A5C001E6F21855CDF6CD00F012087010E1F6F8C
:100A6C00A00E1E6F218553DF63D00F012087010E6E
:100A7C001F6F150E1E6F21854ADF5AD00F0120877C
:100A8C001F6B8A0E1E6F218542DF52D0060E006E40
:100A9C0058D0000E006E0001AA1908E10050A919E7
:100AAC0005E1120EA81902E1A751C00ABAE0000E26
:100ABC00006EAA1908E10050A91905E1250EA81924
:100ACC0002E1A751800AB6E0000E006EAA1908E1F7
:100ADC000050A91905E14B0EA81902E1A751000A13
:100AEC00B2E0000E006EAA1908E10050A91905E148
:100AFC00960EA81902E1A751000AAEE0000E006E96
:100B0C00AA1908E10050A91905E1E10EA81902E1A2
:100B1C00A751000AAAE0AA51000A08E1A951010A4A
:100B2C0005E1A851C20A02E1A751000AA7E0AED71D
:100B3C000C0E486E010E496EAB0E4A6E000E4B6EDB
:040B4C00006A120029
:100B500021D0CF0EAF6EAC940CDF6BD0670EAF6EB2
:100B6000AC9407DF66D0CF0EAF6EAC8402DF61D0ED
:100B7000670EAF6EAC84FDDE5CD0440EAF6EAC840D
:100B8000F8DE57D0220EAF6EAC84F3DE52D0060EE4
:100B9000006E58D0000E006E0001AA1908E1005046
:100BA000A91905E1120EA81902E1A751C00AD1E066
:100BB000000E006EAA1908E10050A91905E1250EE2
:100BC000A81902E1A751800AC9E0000E006EAA1917
:100BD00008E10050A91905E14B0EA81902E1A7513F
:100BE000000AC1E0000E006EAA1908E10050A91920
:100BF00005E1960EA81902E1A751000AB9E0000E1E
:100C0000006EAA1908E10050A91905E1E10EA81922
:100C100002E1A751000AB1E0AA51000A08E1A95176
:100C2000010A05E1A851C20A02E1A751000AAAE09F
:100C3000AED7FE0E486E020E496EAB0E4A6E000E27
:060C40004B6E006A120079
:100C4600C26A151C006E0050C1160F0EC012C08E6F
:100C5600A7C000F000360090003600900050C21287
:100C6600C28043DEC282C2A201D0FDD7C4CF01F04A
:100C7600006A00C0A8F001C0A9F0C3500012000E1F
:100C8600011200C0A8F001C0A9F0C290000E001425
:100C9600026E0150800B036E000E031802E1000E77
:100CA600021803E00001A86BA96BA8C000F0A9C058
:040CB60001F0120037
:100CBA005DD00001A8B102D0929401D092840F01B4
:100CCA0025957AD00001A8B102D0969601D09686D1
:100CDA0073D00001A8B102D0969401D096846CD04A
:100CEA000001A8B102D0949601D0948665D0000183
:100CFA00A8B102D0949801D094885ED00001A8B11E
:100D0A0002D0949A01D0948A57D00001A8B102D097
:100D1A00989001D0988050D00001A8B102D0939445
:100D2A0001D0938449D00001A8B102D0989401D08F
:100D3A0098840F01239540D00001A8B102D098925F
:100D4A0001D098820F01239337D00001A8B102D0B5
:100D5A00949601D0948630D00001A8B102D094981C
:100D6A0001D0948829D0010E006E28D00001A75125
:100D7A00000A9FE0A751010AA5E0A751020AA9E0CB
:100D8A00A751030AADE0A751040AB1E0A751050A29
:100D9A00B5E0A751060AB9E0A751070ABDE0A75175
:100DAA00080AC1E0A751090AC7E0A7510A0ACDE01B
:0E0DBA00A7510B0AD1E0D7D7000E006E120031
:100DC80021D0CF0EAF6EAC94D0DD6BD0670EAF6E76
:100DD800AC94CBDD66D0CF0EAF6EAC84C6DD61D0EF
:100DE800670EAF6EAC84C1DD5CD0440EAF6EAC84D0
:100DF800BCDD57D0220EAF6EAC84B7DD52D0060EE4
:100E0800006E58D0000E006E0001AA1908E10050CB
:100E1800A91905E1120EA81902E1A751C00AD1E0EB
:100E2800000E006EAA1908E10050A91905E1250E67
:100E3800A81902E1A751800AC9E0000E006EAA199C
:100E480008E10050A91905E14B0EA81902E1A751C4
:100E5800000AC1E0000E006EAA1908E10050A919A5
:100E680005E1960EA81902E1A751000AB9E0000EA3
:100E7800006EAA1908E10050A91905E1E10EA819A8
:100E880002E1A751000AB1E0AA51000A08E1A951FC
:100E9800010A05E1A851C20A02E1A751000AAAE025
:100EA800AED7FE0E486E020E496EAB0E4A6E000EAD
:060EB8004B6E006A1200FF
:100EBE0059D00001A8B102D0929201D092820F01B6
:100ECE00259376D00001A8B102D0929801D09288D5
:100EDE006FD00001A8B102D0969201D0968268D050
:100EEE000001A8B102D0949601D0948661D0000181
:100EFE00A8B102D0949801D094885AD00001A8B11C
:100F0E0002D0949A01D0948A53D00001A8B102D095
:100F1E00949401D094844CD00001A8B102D0939245
:100F2E0001D0938245D00001A8B102D0949E01D089
:100F3E00948E3ED00001A8B102D0949C01D0948C26
:100F4E0037D00001A8B102D0949601D0948630D04B
:100F5E000001A8B102D0949801D0948829D0010E36
:100F6E00006E28D00001A751000AA3E0A751010A84
:100F7E00A9E0A751020AADE0A751030AB1E0A751BB
:100F8E00040AB5E0A751050AB9E0A751060ABDE06B
:100F9E00A751070AC1E0A751080AC5E0A751090ADF
:100FAE00C9E0A7510A0ACDE0A7510B0AD1E0D7D765
:060FBE00000E006E12009F
:100FC40021D0CF0EAF6EAC94D2DC6BD0670EAF6E77
:100FD400AC94CDDC66D0CF0EAF6EAC84C8DC61D0EF
:100FE400670EAF6EAC84C3DC5CD0440EAF6EAC84D1
:100FF400BEDC57D0220EAF6EAC84B9DC52D0060EE4
:10100400006E58D0000E006E0001AA1908E10050CD
:10101400A91905E1120EA81902E1A751C00AD1E0ED
:10102400000E006EAA1908E10050A91905E1250E69
:10103400A81902E1A751800AC9E0000E006EAA199E
:1010440008E10050A91905E14B0EA81902E1A751C6
:10105400000AC1E0000E006EAA1908E10050A919A7
:1010640005E1960EA81902E1A751000AB9E0000EA5
:10107400006EAA1908E10050A91905E1E10EA819AA
:1010840002E1A751000AB1E0AA51000A08E1A951FE
:10109400010A05E1A851C20A02E1A751000AAAE027
:1010A400AED7FE0E486E020E496EAB0E4A6E000EAF
:0610B4004B6E006A120001
:1010BA0059D00001A8B102D0929001D092800F01BC
:1010CA00259176D00001A8B102D0949001D09480E5
:1010DA006FD00001A8B102D0969001D0968068D056
:1010EA000001A8B102D0949601D0948661D0000183
:1010FA00A8B102D0949801D094885AD00001A8B11E
:10110A0002D0949A01D0948A53D00001A8B102D097
:10111A00949201D094824CD00001A8B102D093904D
:10112A0001D0938045D00001A8B102D0949E01D08D
:10113A00948E3ED00001A8B102D0949C01D0948C28
:10114A0037D00001A8B102D0949601D0948630D04D
:10115A000001A8B102D0949801D0948829D0010E38
:10116A00006E28D00001A751000AA3E0A751010A86
:10117A00A9E0A751020AADE0A751030AB1E0A751BD
:10118A00040AB5E0A751050AB9E0A751060ABDE06D
:10119A00A751070AC1E0A751080AC5E0A751090AE1
:1011AA00C9E0A7510A0ACDE0A7510B0AD1E0D7D767
:0611BA00000E006E1200A1
:1011C000086A096A100E0C6E01340836093604509C
:1011D000085E0550D8A0053C095ED8B007D0045081
:1011E00008260550D8B0053C0926D89000360136AF
:0611F0000C2EEAD71200EC
:0811F600067E67EC02F0120016
:1011FE00086A096A000E0762036484EF09F0025060
:10120E0006180A6E075003267E0ED8A015EF09F0B9
:10121E00035ED8B089EF09F019EF09F0035ED8A08C
:10122E008EEF09F0028E068E02C00EF001C00BF09A
:10123E0000C00DF000500402F4CF0CF00150050276
:10124E00F4CF00F0F3CF08F00402F3500C26F45064
:10125E000822000E00220D500502F3500C26F45009
:10126E000822000E002202500402F3500826F45009
:10127E00002202500502016A000E0122F3500026E0
:10128E00F45001220D500602F3500826F4500022AD
:10129E00026A000E012202220B500602F3500026B3
:1012AE00F4500122000E02220E500602F3500126C7
:1012BE00F450022202BE6CEF09F0083600360136F9
:1012CE0002360306D8B48EEF09F07FEF09F0D8800E
:1012DE00800E08640030000E002201220222D8A0E7
:1012EE007FEF09F0023201320032034A89EF09F032
:1012FE000AAE029E000E91EF09F0010E1AEC00F0FC
:10130E0091EF09F0020E0EEC00F091EF09F0040ED1
:06131E0025EC00F01200B6
:101324004AC0E1FF4BC0E2FFA7C0E9FFA8C0EAFF43
:10133400EECFE6FF48C000F049C001F081EC04F0B4
:04134400006A120029
:101348000D6A086A0050D8B4000C04180A6E0ABE68
:101358000D1E0B6A04AE02D0041E042A00AE02D091
:10136800001E002A005004100A6E0ABE1FD0045046
:10137800085E003600340836045008260036060E8B
:101388000C6E00340836045000B0085E00A0082631
:1013980000360C2EF6D700A008260BB015D00DAEDF
:1013A800000C001E002A081E082A000C04AE09D0F2
:1013B80000BE04D00050086E006AF1D7006A002A07
:1013C800000C001E0B2AD3D7082A0450085CD8A4A6
:0E13D800E6D7086A002A00AEE2D7FF0C12002A
:1013E6000A6A0350D8A40A800750D8A40A820A5071
:1013F600D8B456EF0AF0030AD8B40FEF0AF00AB0D1
:101406000AEF0AF006AE54EF0AF052EF0AF002AE07
:1014160052EF0AF054EF0AF00250800B0A6E029E59
:101426000650800B069E0A18D8B420EF0AF00A5020
:10143600D8B452EF0AF054EF0AF00750035CD8B460
:101446002AEF0AF0D8A046EF0AF04CEF0AF0065051
:10145600025CD8B434EF0AF0D8A046EF0AF04CEF9D
:101466000AF00550015CD8B43EEF0AF0D8A046EF6A
:101476000AF04CEF0AF00450005CD8B456EF0AF0BC
:10148600D8B04CEF0AF00A52D8B454EF0AF052EF33
:101496000AF00A52D8B452EF0AF054EF0AF0D88094
:0E14A6001200D8901200D880D88412001200D4
:1014B400A7C004F0A8C005F004C002F005C003F002
:1014C400044A052AA9C000F0AAC001F00001A94BF2
:1014D400AA2B00C0E9FF01C0EAFF02C0E1FF03C07C
:1014E400E2FFEECFE6FF02C0E9FF03C0EAFFEE52DF
:0E14F40001E0E2D7A7C000F0A8C001F012008E
:101502000050086E0150006E016A026A036A0B6A9B
:101512000C6A960E036E0A6A00C001F008C000F061
:0A152200086A026A2EEC02F01200C3
:10152C000450000A12E10550000A0FE10650000AAF
:10153C000CE10750000A09E1FF0E006EFF0E016E70
:10154C007F0E026EFF0E036EA8D0086A096A075060
:10155C00D8B441EF0BF00350D8B446EF0BF0025067
:10156C0006180A6E028E068E0E6A02C008F001C0C2
:10157C000CF000C00DF004500D5E0550D8A0053CD9
:10158C000C5E0650D8A0063C085E086A0C6A0D6A10
:10159C00D8A0D8EF0AF0D8900232013200320832CB
:1015AC00010E0E6E0750035ED8A0E5EF0AF07E0E1A
:1015BC000E240326D8B04BEF0BF0EBEF0AF07E0EA7
:1015CC000E240326D8A050EF0BF0180E0B6E0D3620
:1015DC000C3608360036013602360E360450005EE4
:1015EC000550D8A0053C015E0650D8A0063C025E12
:1015FC0006340E120EA006EF0BF00D8011EF0BF05F
:10160C00045000260550D8B0053C01260650D8B031
:10161C00062802260D900B2EEDEF0AF037EF0BF09B
:10162C00D8900036013602360E360450005E055056
:10163C00D8A0053C015E0650D8A0063C025E0634DC
:10164C000E10010B0D26D8B00C2AD8B4082AD8A439
:10165C0037EF0BF008320C320D32032AD8B44BEFB3
:10166C000BF00AAE089E0850026E0C50016E0D5025
:10167C00006E53EF0BF0010E7DEC04F053EF0BF00A
:10168C00020E1AEC00F053EF0BF0040E0EEC00F00F
:0C169C0053EF0BF0080E25EC00F01200DC
:1016A8002ED09CC0A7F09DC0A8F09EC0A9F09FC0F6
:1016B800AAF0E4EC06F031D09CC0A7F09DC0A8F0D9
:1016C8009EC0A9F09FC0AAF0A8EC05F026D09CC047
:1016D800A7F09DC0A8F09EC0A9F09FC0AAF016EC84
:1016E80005F01BD09CC0A7F09DC0A8F09EC0A9F033
:1016F8009FC0AAF063DC11D0010E006E0ED000016D
:101708009B51000ACEE09B51010AD6E09B51020A88
:0C171800DEE09B51100AE6E0EFD7120063
:101724000001A56BA66B9BC0A1F09CC0A2F09DC05C
:10173400A3F09EC0A4F0A451FF0A08E1A351FF0A3C
:1017440005E1A251FF0A02E1A151FF0A0CE19FC089
:10175400A7F0A0C0A8F0230EA96F000EAA6FA8DE00
:10176400030E006EE9D1010E5F6EA3AF0ED0800EA2
:10177400A319006E00C0A3F05F2A9FC0E1FFA0C0C0
:10178400E2FF2D0EE66E9F4BA02B000E006EA419F7
:1017940008E10050A31905E10050A21902E1A1518A
:1017A400000A0BE19FC0A7F0A0C0A8F02B0EA96F00
:1017B400000EAA6F7DDE006ABFD1A451FF0A08E1C2
:1017C400A351000A05E1A251000A02E1A151000A55
:1017D4000CE19FC0A7F0A0C0A8F0270EA96F000ECF
:1017E400AA6F66DE5FC000F0A7D1000E046E000E83
:1017F400056E000E066E7F0E076EA1C000F0A2C03B
:1018040001F0A3C002F0A4C003F0EBDD010ED8B0D8
:10181400000E006E00521BE0A1C000F0A2C001F057
:10182400A3C002F0A4C003F0000E046E000E056E07
:10183400200E066E820E076EE0DC00C0A1F001C02F
:10184400A2F002C0A3F003C0A4F0A607CED7000EF6
:10185400046E000E056E200E066E820E076EA1C089
:1018640000F0A2C001F0A3C002F0A4C003F0B9DDEF
:10187400000ED8B0010E006E00521BE0A1C000F0B3
:10188400A2C001F0A3C002F0A4C003F0CD0E046E08
:10189400CC0E056E4C0E066E7B0E076EAEDC00C0E1
:1018A400A1F001C0A2F002C0A3F003C0A4F0A62BD3
:1018B400CED7FF0EA115086EFF0EA215096E7F0E7E
:1018C400A3150A6E000EA4150B6E08C004F009C01F
:1018D40005F00AC006F00BC007F004360490053684
:1018E40006360736000EA115006E000EA215016E15
:1018F400000EA315026EFF0EA415036E00C0A1F026
:1019040001C0A2F002C0A3F003C0A4F00450A111CE
:10191400006E0550A211016E0650A311026E07500D
:10192400A411036E00C0A1F001C0A2F002C0A3F094
:1019340003C0A4F07F0EA45D006E00C060F0010E31
:10194400A46F00C004F0A1C000F0A2C001F0A3C0C5
:1019540002F0A4C003F0045007E000360090013602
:1019640002360336FF0FF8D700C0A1F001C0A2F081
:1019740002C0A3F003C0A4F09FC0E1FFA0C0E2FF37
:10198400A451300FE66E9F4BA02B800EA619006E5B
:10199400800E010A005C08E3800E060A006E800EC9
:1019A400A619005C01E30AD09FC0E1FFA0C0E2FFDA
:1019B4002E0EE66E9F4BA02B010EA56F060E606FD8
:1019C4006051000A54E0A46BA1C000F0A2C001F071
:1019D400A3C002F0A4C003F0003600900136023622
:1019E400033600360090013602360336A151002634
:1019F400A2510122A3510222A451032200C0A1F04A
:101A040001C0A2F002C0A3F003C0A4F0A1C000F082
:101A1400A2C001F0A3C002F0A4C003F000360090FD
:101A240001360236033600C0A1F001C0A2F002C0A4
:101A3400A3F003C0A4F09FC0E1FFA0C0E2FFA45143
:101A4400300FE66E9F4BA02BA551000A0EE1A607AE
:101A5400A651000A0AE19FC0E1FFA0C0E2FF2E0EDA
:101A6400E66E9F4BA02B010EA56F6007A9D7FF0E52
:101A74009F25E96EFF0EA021EA6EEE50300A05E1C3
:101A8400010E9F5F000EA05BF2D7FF0E9F25E96E4B
:101A9400FF0EA021EA6EEE502E0A04E1010E9F5FB4
:101AA400000EA05BA651000A41E09FC0E1FFA0C068
:101AB400E2FF650EE66E9F4BA02B800EA619006E0A
:101AC400800E000A005C0BE29FC0E1FFA0C0E2FFB1
:101AD4002D0EE66E9F4BA02BA6510008A66FA6C044
:101AE40060F0800E090A006E800EA619005C0EE2FA
:101AF4000A0E046E60C000F025DC9FC0E1FFA0C0A8
:101B0400E2FF0050300FE66E9F4BA02B0A0E046ECE
:101B140060C000F017DC08C000F09FC0E1FFA0C067
:101B2400E2FF0050300FE66E9F4BA02B9FC0E1FFF9
:0A1B3400A0C0E2FFE66A006A12009A
:101B3E009BC03CF09CC03DF09DC03EF09EC03FF06F
:021B4E00120083
:021B5000120081
:101B520018D09CC0A7F09DC0A8F05DEC08F01CD086
:101B62009CC0A7F09DC0A8F05FEC07F015D09CC008
:101B7200A7F09DC0A8F05DEC06F00ED0010E006E3D
:101B82000BD000019B51000AE4E09B51010AE8E0FE
:0A1B92009B51020AECE0F2D71200AA
:101B9C003CC004F03DC005F03EC006F03FC007F06D
:101BAC00000E006E400E016E4E0E026E8A0E036E1B
:101BBC00B7DC00C09DF001C09EF002C09FF003C0D6
:101BCC00A0F09BC000F09CC001F095DC9DC004F01F
:101BDC009EC005F09FC006F0A0C007F0FFEC08F017
:101BEC00000E046E800E056E300E066E870E076EAC
:101BFC00FBEC08F0000E046E000E056E040E066E73
:101C0C00850E076E8DDC000E046E000E056E7A0ECE
:0C1C1C00066E880E076EFFEC08F0120048
:101C28000B6A0A6A096A086A0E6A0334083604509D
:101C3800085E0550D8A0053C095E0650D8A0063CB1
:101C48000A5E0750D8A0073C0B5EE86AD8A0010ED0
:101C58000E5E0336070E0C6E0334083609360A3654
:101C68000B360E36045003A012D0085E0550D8A0DB
:101C7800053C095E0650D8A0063C0A5E0750D8A06D
:101C8800073C0B5EE86AD8A0010E0E5E11D008264C
:101C98000550D8B0053C09260650D8B0063C0A269F
:101CA8000750D8B0073C0B26E86AD8B0010E0E26BC
:101CB80003360C2ED1D70234083609360A360B36CD
:101CC8000E36045003A012D0085E0550D8A0053C7B
:101CD800095E0650D8A0063C0A5E0750D8A0073C0B
:101CE8000B5EE86AD8A0010E0E5E11D008260550DA
:101CF800D8B0053C09260650D8B0063C0A2607503D
:101D0800D8B0073C0B26E86AD8B0010E0E2602367A
:101D1800070E0C6E0234083609360A360B360E36B4
:101D2800045002A012D0085E0550D8A0053C095EF8
:101D38000650D8A0063C0A5E0750D8A0073C0B5EA8
:101D4800E86AD8A0010E0E5E11D008260550D8B05A
:101D5800053C09260650D8B0063C0A260750D8B0DC
:101D6800073C0B26E86AD8B0010E0E2602360C2E68
:101D7800D1D70134083609360A360B360E360450E8
:101D880002A012D0085E0550D8A0053C095E065096
:101D9800D8A0063C0A5E0750D8A0073C0B5EE86A4C
:101DA800D8A0010E0E5E11D008260550D8B0053C0B
:101DB80009260650D8B0063C0A260750D8B0073C7A
:101DC8000B26E86AD8B0010E0E260136070E0C6EF7
:101DD8000134083609360A360B360E36045001A08F
:101DE80012D0085E0550D8A0053C095E0650D8A060
:101DF800063C0A5E0750D8A0073C0B5EE86AD8A0EC
:101E0800010E0E5E11D008260550D8B0053C0926F3
:101E18000650D8B0063C0A260750D8B0073C0B2617
:101E2800E86AD8B0010E0E2601360C2ED1D7003440
:101E3800083609360A360B360E36045001A012D081
:101E4800085E0550D8A0053C095E0650D8A0063C9F
:101E58000A5E0750D8A0073C0B5EE86AD8A0010EBE
:101E68000E5E11D008260550D8B0053C092606504C
:101E7800D8B0063C0A260750D8B0073C0B26E86ABB
:101E8800D8B0010E0E260036070E0C6E0034083648
:101E980009360A360B360E36045000A012D0085EFA
:101EA8000550D8A0053C095E0650D8A0063C0A5E3D
:101EB8000750D8A0073C0B5EE86AD8A0010E0E5E5A
:101EC80011D008260550D8B0053C09260650D8B0D0
:101ED800063C0A260750D8B0073C0B26E86AD8B05B
:101EE800010E0E2600360C2ED1D700B00ED00450AD
:101EF80008260550D8B0053C09260650D8B0063C3F
:0C1F08000A260750D8B0073C0B26120038
:101F14009BC09EF09CC09FF00D0E5F6E0A0E0001E8
:101F2400606F3AD09EC0A7F09FC0A8F092EC09F071
:101F34003ED09EC0E9FF9FC0EAFFEE520AE09EC079
:101F4400A7F09FC0A8F092EC09F000019E4B9F2BD4
:101F5400F0D72DD09EC0E9FF9FC0EAFFEE520AE001
:101F64009EC0A7F09FC0A8F092EC09F000019E4B20
:101F74009F2BF0D700015F0EA76F000EA86F92ECA5
:101F840009F0600E0001A76F000EA86F92EC09F033
:101F94000ED0060E006E0CD000019D51000AC2E066
:101FA4009D51010AC6E09D51020AD4E0F2D7006AAD
:021FB400120019
:101FB600090E0B6E1E0E0C6EE40E0D6E0D2EFED768
:0C1FC6000C2EFCD70B2EFAD700001200E6
:101FD2009BC0A7F09CC0A8F09DC0A9F0E4EC04F05F
:021FE2001200EB
:021FE4001200E9
:101FE6005F6A050E5F5C0BE25F5000019D25E16EA6
:101FF600000E9E21E26E200EE66E5F2AF2D70001E9
:102006005F509D25E16E000E9E21E26EE66A5F0638
:102016005F509D259F6F000E9E21A06F0A0E046ED5
:10202600000E056E9BC000F09CC001F0E0EC08F0CD
:1020360008C000F009C001F0300E00269FC0E1FF85
:10204600A0C0E2FF00C0E6FF0A0E046E000E056E99
:102056009BC000F09CC001F0E0EC08F000C09BF0D3
:1020660001C09CF0000E011802E1000E001801E10B
:0820760002D05F06CDD7120075
:10207E000001A76B23EC06F000C09BF001C09CF0A2
:10208E00000E00019D6F9E6F9BC000F09CC001F082
:0A209E009DC002F09EC003F0120086
:1020A80000019B6B070E9C6F010E9D6F4EDD0001BA
:1020B8009B6B9C6B010E9D6F48DD100E00019B6FA2
:1020C800800E9C6F250E9D6F000E9E6F9F6F54ECC7
:0620D8000BF06DDF1200A9
:1020DE000900F5CFE6FF0006FBE10106F9E112006B
:1020EE00500E00019B6F220E9C6F000E9D6F6ADFDB
:1020FE00000E9B6FF00E9C6F7F0E9D6F8A0E9E6F73
:0A210E0017DD1FDD68DF50DF12004F
:102118000001976B986B996B9A6B976B986B996B9F
:102128009A6B5E6A140E5E5C0BE2A5DF005097277F
:10213800015098230250992303509A235E2AF2D71C
:10214800140E046E000E056E066E076E97C000F042
:1021580098C001F099C002F09AC003F061DD00C098
:102168005CF001C05DF000C09BF001C09CF012DD86
:1021780000C061F001C062F002C063F003C064F007
:10218800046A056A066A076AF3EC09F0010ED8B01A
:10219800000E006E005205E00001616B626B636B1C
:1021A800646B00015CC09BF05DC09CF0650E9D6F88
:1021B800000E9E6F14DF160E9B6F000E9C6F010EB3
:1021C8009D6FA4DE650E00019B6F000E9C6F020ED2
:1021D8009D6F9CDE61C09BF062C09CF063C09DF067
:1021E80064C09EF0650E00019F6F000EA06F92EC18
:1021F8000BF02D0E9B6F000E9C6F010E9D6F86DEFF
:10220800650E00019B6F000E9C6F020E9D6F7EDEB7
:10221800390E00019B6F000E9C6F020E9D6F76DEDB
:10222800290E0B6E960E0C6E7F0E0D6E0D2EFED7C0
:0A2238000C2EFCD70B2EFAD7120073
:0E2242006EEC11F030DF52DF66DFFED7FFD703
:1022DC0010EE15F02B0E006E010E016EB00EF66EA8
:0E22EC00220EF76E000EF86E6FEC10F012006E
:10225000F000AB00FE00AB003603AB004403AB0064
:102260002803AB000C03AB001A03AB008E00AB00DD
:102270009C00AB008000AB006400AB007200AB00C0
:10228000FFFFFFFFFFFFFFFFFFFFFFFFFFFFFFFF5E
:10229000FFFFFFFFFFFFFFFFFFFFFFFFFFFFFFFF4E
:1022A000FFFFFFFFFFFFFFFFFFFFFFFFFFFFFFFF3E
:0122B00038F5
:0D22B100204144432076616C75653A2000A1
:0422BE004E614E001F
:0422C200494E46003B
:0222C6003000E6
:0C22C8002043757272656E74203A20008D
:0322D400202000C7
:0422D70000C07F883C
:020000040030CA
:0E00000015137F7CF98B91FFFFC0FFE0FF40DE
:00000001FF
